:020000040800F2
:2000000030B40020ED010008FB0B00080B0A0008F90B00080D050008712F000800000000ED
:20002000000000000000000000000000092800088907000800000000B90C000851290008A0
:20004000070200080702000807020008070200080702000807020008070200080702000818
:200060000702000807020008070200080702000889060008AD0600080702000807020008C8
:200080000702000807020008070200080702000807020008070200080702000807020008D8
:2000A0000702000807020008070200080702000807020008070200080702000807020008B8
:2000C000070200080702000807020008070200080702000807020008070200080702000898
:2000E000070200080702000807020008070200080702000807020008070200080702000878
:2001000007020008490F000807020008070200080702000807020008070200080702000808
:200120000702000807020008070200080702000800F002F800F03AF80AA090E8000C82447B
:200140008344AAF10107DA4501D100F02FF8AFF2090EBAE80F0013F0010F18BFFB1A43F092
:2001600001031847606B0000806B0000103A24BF78C878C1FAD8520724BF30C830C144BFC6
:2001800004680C60704700000023002400250026103A28BF78C1FBD8520728BF30C148BFC9
:2001A0000B6070471FB51FBD10B510BD00F021F91146FFF7F7FF04F06DFC00F03FF903B452
:2001C000FFF7F2FF03BC00F045F90000EFF30980704780F309887047EFF30880704780F3DA
:2001E0000888704740BA7047C0BA70470948804709480047FEE7FEE7FEE7FEE7FEE7FEE7C8
:20020000FEE7FEE7FEE7FEE704480549054A064B70470000552900083101000830A00020A9
:2002200030B4002030A4002030A4002030B505460B462A4613F8014B12F8010B08B1A042D9
:20024000F8D01CB1002802D06D1CF1E7284630BD40EA0103024630B59B0710D14FF0013401
:2002600000E008C208C91D1B9D4315EAC41FF8D013F0FF0102F8011B0DD01B0AF8E711F83E
:20028000013B002B02F8013B05D011F8013B002B02F8013BF3D130BD421E12F8013F002BC0
:2002A000FBD111F8013B002B02F8013BF9D17047032A40F2308010F0030C00F0158011F89F
:2002C000013BBCF1020F624498BF11F801CB00F8013B38BF11F8013BA2F1040298BF00F8FA
:2002E00001CB38BF00F8013B11F0030300F02580083AC0F0088051F8043B083A51F804CB0F
:20030000A0E80810F5E7121D5CBF51F8043B40F8043BAFF30080D20724BF11F8013B11F8EC
:2003200001CB48BF11F8012B24BF00F8013B00F801CB48BF00F8012B704710B5203AC0F029
:200340000B80B1E81850203AA0E81850B1E81850A0E81850BFF4F5AF5FEA027C24BFB1E83C
:200360001850A0E8185044BF18C918C0BDE810405FEA827C24BF51F8043B40F8043B08BF84
:200380007047D20728BF31F8023B48BF11F8012B28BF20F8023B48BF00F8012B70474FF0E7
:2003A000000200B5134694469646203922BFA0E80C50A0E80C50B1F12001BFF4F7AF090749
:2003C00028BFA0E80C5048BF0CC05DF804EB890028BF40F8042B08BF704748BF20F8022B9A
:2003E00011F0804F18BF00F8012B7047704770477047754600F028F8AE460500694653464A
:2004000020F00700854618B020B5FFF7FDFEBDE820404FF000064FF000074FF000084FF056
:20042000000B21F00701AC46ACE8C009ACE8C009ACE8C009ACE8C0098D4670470446AFF3BC
:2004400000802046FFF7BBFE00487047D09F00207047000001491820ABBEFEE726000200CA
:200460002DE9F04790468946054602F049FA012204211E4801F0F8FE00F0C4F94FF0E02089
:20048000016921F0010101614FF00064A54200D8A40017482F1B174D8078174E01280DD106
:2004A0002021284600F0AFFA304603F04FF92021284600F0A6FA304603F048F920212846AB
:2004C00000F0A1FA304603F041F92021284600F098FA03F041FC3946204600F0E3FB48464C
:2004E000FFF77DFEC446BDE8F0476047000000201C00002000100140FFFF2F00002302E01F
:20050000C1545B1C9BB29342FAD37047FEE70000002042F21071074A02E0536B1B0602D407
:20052000491EFAD200E019B140F2FF519163704703207047008001400D4A516B11F0450FAE
:20054000FBD04B0703D50420906303207047C90702D00120906370471169814201D010200A
:20056000704740F2FF509063506900F0080070470080014010B5002042F210720D490BE04B
:200580004B6B13F0450F07D00AB15A0707D58A6B032042F004020BE0521EF1D2F5E7DA0754
:2005A00004D08A6B012042F001028A6340F2FF528A6310BD008001400849486B10F0450FD9
:2005C000FBD0400705D5886B40F0040088630320704740F2FF50886300207047008001403F
:2005E00030B50446174A0020536B13F0450FFBD05D0705D5906B40F004009063032030BDFB
:20060000DB0705D0906B40F001009063012030BD1369A34210D140F2FF539363526912F479
:20062000604F03D0910405D5132030BD4FEA12420A8030BD510401D5102030BD1104FCD577
:200640000F2030BD0080014010B5002042F210720C490BE04B6B13F0450F07D00AB15A07E2
:2006600007D58A6B032042F0040208E0521EF1D2F5E75A0604D58A6B002042F040028A63A8
:2006800010BD00000080014010B5202000F03AF8012808D10021044800F028F8BDE8104031
:2006A000202000F017B810BD1C00024010B54FF40074204600F026F8012808D100210448B1
:2006C00000F014F82046BDE8104000F003B810BD30000240C10002D502490860704702498C
:2006E0004860704704040240000002400029016802D041F0010102E04FF6FE72114001602F
:200700007047000001460020CA0001D5034A00E0034A12680A4200D00120704700040240ED
:2007200000000240002A026801D00A4300E08A430260704730B5036847F6F07293430C6AC4
:200740008A682243D1E904452C4322438C692243CC6922434C6A22438C6A22431A43026042
:20076000CA6842600A6882604968C16030BD0021016041608160C160016141618161C16165
:200780000162416281627047704742F2107203E00021491C9142FCD3401EF9D27047000061
:2007A00070B505464FF43026304600F059F8042811D1094C206940F002002061656120698B
:2007C00040F040002061304600F04AF8216941F6FD721140216170BD002002400849042079
:2007E000CA68D20701D001207047CA68520701D502207047C968C906FBD503207047000061
:20080000002002400248016941F080010161704700200240F0B506464FF400570D46384639
:2008200000F01EF804280CD1064C206940F0010020613580384600F013F82169BA1E11403B
:200840002161F0BD002002400348024941600349416070472301674500200240AB89EFCD0A
:2008600000B50346FFF7BAFF03E000BFFFF7B6FF5B1E012803D0002B00D1052000BD002B00
:20088000F4D1FAE77CB500250C4606460095082201211020019500F059FB1020FFF74CFE63
:2008A000002828D132040121372000F04FFB3720FFF742FE00281ED10123032208212648AA
:2008C00000F05CFB00220121332000F03FFB3320FFF732FE214A00280DD16B4640F22A61B8
:2008E000566B0E4208D0516B090710D5906B40F00800906304207CBD566BB602F0D5D2F8D3
:20090000806043F825606D1C022DE9D3EBE7516B890705D5906B40F00200906302207CBD50
:20092000516B890605D5906B40F02000906306207CBD516B890505D5906B40F4007090633F
:2009400007207CBD40F2FF519163009909BA6160019909BA21607CBDFFFF0F0000800140BF
:20096000F0B5CA78002502F00F03D20601D58A7813430A784FF00F0E12F0FF0F4FF0010231
:200980001CD004680F8802FA05F63740B74211D14FEA850C0EFA0CF724EA070703FA0CF431
:2009A0003C43CF78282F02D0482F02D002E0466100E006616D1C082DE4D304600C88FF2C97
:2009C0001ED944685FF0000606F1080702FA07F50F882F40AF420FD14FEA860C0EFA0CF774
:2009E000BC4303FA0CF73C43CF78282F00D14561CF78482F00D10561761C082EE4D344604C
:200A0000F0BD4161704701617047FEE710B5044614480121008902040D2000F097FA1249AD
:200A20004A6B12F0450FFBD0D00705D0886B40F001008863012010BD500705D5886B40F0E3
:200A400004008863032010BD08690D2801D0102010BD40F2FF5088634869C0F34320207080
:200A6000002010BDE80000200080014001F09DBD38B55B1A049C121A009403F061FE38BD6C
:200A800038B50121202000F015FA4FF43050ADF8000003248DF8024010258DF803506946F6
:200AA0000948FFF75DFF0121102000F003FA4020ADF800008DF802408DF8035069460348B6
:200AC000FFF74EFF38BD0000001401400010014010B5084C40212046FFF793FF642002F05A
:200AE00059FE40212046FFF78EFFBDE81040322002F050BE0010014038B5049C009401F0AB
:200B00007BFD38BD7CB5DDE90645CDE9004501F0D1FD7CBD01B50121684603F053FA08BDA8
:200B20002DE9F84301211C2000F0C4F90420ADF8000010242D4F8DF8034003258DF8025019
:200B400069463846FFF70CFF04213846FFF75BFFA601ADF800608DF803408DF8025069467A
:200B60003846FFF7FDFE31463846FFF74CFF2020ADF80000DFF878808DF803408DF802507D
:200B800069464046FFF7ECFE20214046FFF739FF0121202000F08EF96602ADF80060154FA1
:200BA0008DF803408DF8025069463846FFF7D8FE31463846FFF725FF4020ADF800008DF804
:200BC00003408DF8025069464046FFF7C9FE40214046FFF716FF4FF4FA7003F002FF402115
:200BE0004046FFF710FFBDE8F8830000000C01400010014000140140FEE7704700F01F02AA
:200C00000121914040094FF0E02202EB8000C0F88011704700F01F020121914040094FF05E
:200C2000E02202EB8000C0F800117047F0B50F21C478027801234FF0E026DCB1124C24685A
:200C4000457804F4E064C4F5E064240AC4F10407E1408478BD400C402C4321010B4C1155FC
:200C6000007800F01F018B40400906EB8000C0F80031F0BD02F01F008340500906EB800033
:200C8000C0F88031F0BD00000CED00E000E400E00249084302490860704700000000FA05A2
:200CA0000CED00E0024A1140014302480160704780FFFF1F08ED00E070470000F8B516002C
:200CC0000F4615D01B4CB2B23846616801F5104101F0CAFA00250EE0411901F510410122F5
:200CE000684601F093FA785D9DF80010884201D00020F8BD6D1C6068B542EDD381190E48E6
:200D000061600088A0F51442883A07D0A0F5AE42613A03D0A0F5EE42963A02D14FF49620B2
:200D200001E04FF416302061814201D3002060600120F8BDF4000020E400002070B5150029
:200D4000084613D01249134C0A88A2F51441883907D0A2F5AE41613903D0A2F5EE4196390A
:200D600006D1A168AAB201F5702105E0002070BDA168AAB201F5BB0101F076FAA068284492
:200D8000A060B0F5163F01D30020A060012070BDE4000020F40000202DE9FE4F002692469E
:200DA0000F4680464FF400498DF800603546344601224946684601F029FA9DF80000FF2882
:200DC00001D18DF800602D480088A0F51441883907D0A0F5AE41613903D0A0F5EE41963959
:200DE00005D19DF80000264901EBC03105E09DF800004FF43C3101EB8031BAB2504601F082
:200E000033FA00260BE0012204F5405101A801F0FDF99DF80400641C0028F4D1761C9DF82A
:200E200000008642EFD3002001E0401C6D1C18F800100029F9D16D1C04F54051AAB240463A
:200E400001F012FA9DF800004FF4E04101EB8001042202A8029701F007FA9DF800004C46AD
:200E6000401C8DF80000484601F0F2FA01222146684601F0F9F90120BDE8FE8FE4000020B4
:200E800000781400044A0029516901D0014300E0814351617047000000100240044A0029AA
:200EA000D16901D0014300E08143D1617047000000100240044A0029916901D0014300E09E
:200EC0008143916170470000001002403CB5002100910C46019100B1022413484069800170
:200EE00001D50E203CBD114D6946288980B2FFF7C9FC0028F6D10198400313D528890121C4
:200F00000204372000F022F83720FFF715FB0028E8D122460121062000F018F80620FFF760
:200F20000BFB3CBD25203CBD00800140E800002004494A6822F0FF024A604A6802434A604E
:200F4000704700000080014000F0CEBB0A4B9A60DA686FF30A02DA60DA6800F03F000243B1
:200F6000DA60D86840EA8110D860D868D860D86840F48060D86070470080014010B50D4C6A
:200F8000606221F07E40A062E06A20F0F700E062E06A40EA0210E062E06AE062E06A03F09A
:200FA000010140EA4100E062E06A40F00100E06210BD00000080014030B51A4B1C6844F431
:200FC00070441C60174B40331C6824F001041C601C6847F6F075AC431C601C6844EA02129C
:200FE0001A601A681A601A681A601A6842F080021A601A6842F400721A601A6842F4006211
:201000001A601A6842F400521A6089081A1D1160121D05491160111D0860186840F0010064
:20102000186030BD040402408080014030B51649024600200978154C95B203290BD00529B6
:2010400009D0072907D019B1012901D0022917D1022A16D205E0022A13D20D49497804298A
:201060000ED3D0B2FFF732FF002809D1616821F4C0516160616841EAC5216160616861600F
:2010800030BD272030BD0000E800002000800140609B00202DE9F04F86B0B74A002102910B
:2010A000117880F85610B54C1289A0F854202268130E9D090570C3F38305457003F003036F
:2010C0008370130CC370130A037142716468220E1301C4F3074243EA1213C38002F00F02DF
:2010E0000272C4F30722D3094372C2F380138372C2F34013C372C2F300130373002343737A
:20110000C4F307239B071B0DE5B243EA85059B4B9B6803931F0E07F007030193039B45EAC8
:201120009719C3F30746C6F382030093B3074FEA537C039BC7F3C20EC3F307254CEAD5183C
:2011400009F10103059308F102034FF0010C0CFA03FA4FEAEA730493C4F3074303F00F0C70
:201160004FEA561B012303FA0CF3B9B1012915D0022904D0032911D007292FD043E0A20626
:20118000920A42EA0723334303615B1C5C0BDB04C0E912342A464FF4007333E0C0F8109046
:2011A00080F814E0019A427580F816B0009AC27580F81880DDE904C62A46A6FB0A5800242B
:2011C00004FB0A8706FB0C76A5FB037C036506FB03C305FB0433C0E9127314E0C0F81090FD
:2011E00080F814E0019A427580F816B0009A634BC27520332A4680F81880D3E91245C0E9E5
:2012000012451B6D0365C2F38013920600F8193F540E039A594BD2B244EAD214447002F076
:201220007F028270DB681A0ED409C470C2F341140471C2F3820444719207140FC3F3074295
:2012400044EA92148471C2F34014C4710024047202F001024272C3F30722D4098472C2F3DD
:201260008014C472C2F340140473C2F300144473C2F38104847302F00302C273C3F3460249
:201280003E4B02740122103342741A68140EC474C2F307442602C2F307242643A0F81560D9
:2012A00014065A68150E44EA0544C2F3074544EA0525C2F307242543C0F8175000F81B2FB6
:2012C0009F68C7F3074B3C0E4FEA0B6CC7F3072A44704CEA0A4CFAB24CEA0222D3F80CC039
:2012E0004FEA1C6942EA090200924260037ACCF3074243EA121303729E4613074FEA1358D7
:20130000CCF3072348EA0308A0F80A80CCF3460C80F80CC04FF0010C80F80DC0343841B141
:20132000012906D0022904D003290DD007290BD01EE0C6850563009981634EEA121180F899
:201340003C10A0F83E8013E0C685056380F834404FEA0A61FCB241EA044444EA092180F8C4
:2013600035B0114381631907090E41EA1311C187029806B0BDE8F08FE8000020409B00200B
:201380002E4808B5816941F010018161816941F020018161416941F480614161416941F0B1
:2013A00002014161264841686FF3130141604168244A114341602448016821F47061016032
:2013C000016841F43061016020480021016041608160C16041628162C1621D4A8263C163D7
:2013E00031208DF8000001208DF801008DF802008DF803006846FFF719FC00F08BF888B9F4
:2014000000F02CF870B91348FFF744FE50B91148B0F85400000400F0B9FB18B90120FFF70E
:2014200005FE18B10C490978032905D10720FFF77FFD012000F0B6FB08BD00000010024096
:2014400000100140BBBB0B000014014000800140FF07C000609B0020E800002038B52A4C58
:201460000120ADF800002068800724D0274D2878042846D0002203210220FFF767FDFFF795
:2014800079F8002818D1616921480160A1694160E1698160216AC160287870B101280CD0EE
:2014A00006280AD0022808D0032806D0052804D0072802D00CE0252038BD00220121032092
:2014C000FFF744FD69460320FFF78AF80028F3D12878042815D0BDF80000A8600204032107
:2014E0000920FFF733FDFFF745F80028E4D16169074810380160A1694160E1698160216A6A
:20150000C160002038BD000000800140E8000020509B00202DE9F04F0025DFF8B8912C46B5
:201520002E46AB464B46C9F80450D9F80400C9F80400D9F80400C9F80400D9F80400C9F8D6
:201540000400D9F80400C9F80400D9F80400C9F804006620FFF7ECFC03201860586840F460
:2015600080705860002041F28831401C88468842FBD30027002211461046FFF7E7FCFEF731
:20158000C7FF20B17F1C4A2FF4D3BDE8F08F4FF4D57201210820FFF7D9FCFFF755F84E4F36
:2015A000002855D0002211461046FFF7CFFCFEF7AFFF0028E9D1002201213720FFF7C6FC76
:2015C0003720FEF7B9FF4FF6FF7A00285ED000214FF0F0320846FFF7B9FCFEF799FF0028C3
:2015E000D3D1002211461046FFF7B0FCFEF790FF0028CAD1DFF8E4B05646B44211D201218D
:201600005A460846FFF7A2FCFEF7D6FF0028BCD1D9F814504146EA0F641C491EFDD1002A35
:20162000EBD0B4424DD3DFF8B8A00024012152460846FFF78BFCFEF7BFFF0028A5D1D9F8DF
:2016400014504146EA0F641C491EFDD192B334E0012038708607AEE7002201213720FFF71C
:2016600075FC3720FEF768FF00288ED14A4601212920FFF76BFCFEF79FFF002885D11549F8
:201680004D6904F10104E90F04D005E0154AD04646EA02094445DFD3444510D215F0804FBF
:2016A00001D0022112E0B6F1804F3FF46EAF87F800B06AE7FFE7B442B8D3B44201D31B2092
:2016C00063E7C5F34171022902D0032139705CE70721FBE700800140E80000200080FFC037
:2016E0000080FF800000109170B5314C606B314DC0054CF23A3618D5A87801280CD00020BA
:20170000E870A06B40F48070A063E06BB043E06301202871E87870BD002201210C20FFF711
:2017200015FC0C20FEF708FFEAE7606B800709D5A06B40F00200A063E06BB043E06302208C
:20174000E87070BD606B000709D5A06B40F00800A063E06BB043E0630420E87070BD606B19
:20176000800609D5A06B40F02000A063E06BB043E0630620E87070BD606BC00609D5A06B01
:2017800040F01000A063E06BB043E0630520E87070BD606B800509D5A06B40F40070A063FB
:2017A000E06BB043E0630720E87070BD002070BD00800140E80000202DE9F04F1746099E8D
:2017C000050022D05A4C4FF00009C4F82C90DFF8648198F80000022803D10602570A47EAC8
:2017E000C3570023DFF850A11A4619465046FFF7C5FB6069800102D50E20BDE8F08F701ED8
:20180000B0F5006F01D2064201D02620F5E7304601F030FE8346324601211020FFF796FBF7
:201820001020FEF789FE0028E7D101235A4631465046FFF7A3FB3A4601211120FFF786FB6D
:201840001120FEF779FE0700D7D198F80110404681B1012940D064E000040DD55FF0000030
:20186000D4F8802045F82020401C0828F8D305F1200501E040F22A61606B0842606BEBD0D4
:20188000000704D5A06B40F00800A0634DE0606B800705D5A06B40F00200A0630220ACE7D4
:2018A000606B800605D5A06B40F02000A0630620A3E7606B800508D5A06B40F40070A06310
:2018C00007209AE7D4F8800001C5606B8002F9D440F2FF50A06324E080F8039080F8029097
:2018E00080F80490E06B40F22A310843E063E06A40F00800E062002231462846FFF75CFB5E
:201900000E490F4A404601E0A1F1010113689B0403D403790BB9C3782BB131B1C17801B107
:20192000C778384669E70029EED1042065E7000000800140E8000020FFFF0F00FFFF01006D
:20194000000402402DE9FC4700254FEAD15A074683074FEA412116464FF40070894616D029
:201960000024804610E04A4653461348CDF80080FFF722FF054642460F493846FEF798FC7B
:20198000641C07F50077E4B2B442ECD309E0012E0AD0CDE900060A465346384600F00EF8FE
:2019A00005462846BDE8FC8700900A4653463846FFF702FFF4E70000B89B00202DE9F84FAD
:2019C0006D4EDDE90A484FF0000B17460546C6F82CB0DFF8A8A19AF80000022803D10402F2
:2019E000570A47EAC35700231A4619466448FFF7C5FA7069B146800102D50E20BDE8F88F76
:201A0000601EB0F5006F18D2044216D1204601F031FD0090224601211020FFF797FA102097
:201A2000FEF78AFD0600E9D14046B8F1010F1ED900FB04F8B8F1007F01D32620DEE7012312
:201A400041464F48009AFFF799FA3A4601211220FFF77CFA1220FEF76FFD0600CED19AF83B
:201A60000100544640F22A3180B1012854D080E000040CD55FF00000D7F8802045F8202040
:201A8000401C0828F8D305F1200500E04F46786B0842786BECD0000704D5B86B40F0080058
:201AA000B8635CE0786B800705D5B86B40F00200B8630220A2E7786B800605D5B86B40F0DA
:201AC0002000B863062099E7786B800509D5B86B40F40070B863072090E700BFD7F8800051
:201AE00001C5786B8002F9D4786BC00510D59AF8000018B1012801D0022809D100220121C4
:201B00000C20FFF723FA0C20FEF716FD060095D140F2FF50B8632CE084F803B00122A270DA
:201B200084F804B0D9F83C200A43C9F83C20D9F82C1041F00801C9F82C1000224146284683
:201B4000FFF73AFA0F48104902E000BFA0F101000A68920402D40028F8D100E008B90420E4
:201B60004CE7207910B9E0780028FAD0E07800B1E678304642E7000000800140E8000020B7
:201B8000FFFF0F00FFFF01000004024000B5024601210720FFF7DAF907205DF804EBFEF784
:201BA000CBBC00000021012803D010B1262108467047014A5070FAE7E80000202DE9FC5F0F
:201BC00005004FF000000C9C90469B468DF800000646A2461BD0DFF80C924F46C9F82C00C7
:201BE0000346024601468048FFF7C8F97869800102D50E20BDE8FC9F7C4F3878022808D06A
:201C0000601EB0F5006F02D2601E044208D02620F0E74FEA58204FF4007440EACB58F3E716
:201C2000204601F027FC0190224601211020FFF78DF91020FEF780FC0028DBD13889BB462C
:201C4000020401210D20FFF781F90D20FEF774FC0028CFD1D9F81400634F0EE0BBF8080025
:201C60007F1E020401210D20FFF770F90D20FEF763FC0028BED1D9F81400C00502D4002F2C
:201C8000ECD11BE0D7B1424601211820FFF75EF91820FEF751FC0028ACD180468BF80280EB
:201CA0005F46434621465048019AFFF767F9787840F2FF5B30B3012850D085E0292099E730
:201CC000400422D5AAEB060020280ED282074FEA900200D0521C002004E010CDC1F880401A
:201CE000401C361D904210D2F7E7002055F82020C1F88020401C0828F8D305F1200506F134
:201D0000200602E040F21A634946486B1842486BD6D0000704D5886B40F00800886351E0F0
:201D2000486B800705D5886B40F002008863022060E7486BC00605D5886B40F010008863A5
:201D4000052057E7486B800505D5886B40F40070886307204EE7C1F838B035E087F8038078
:201D600087F8028087F80480D9F83C004E4640F21A310843C9F83C00012221462846FFF70B
:201D80001BF9F06A40F00800F0621949194A084602E000BFA0F1010013689B0402D40028ED
:201DA000F8D100E018B9FFF7EBFA0BE0491E387908B9F87820B129B1F87828B1F87819E736
:201DC0000029F3D1042015E7C9F838B06846FEF71DFE0028ACD19DF800100729F6D0062920
:201DE000F4D007E700800140FFFF0F00E8000020FFFF0100000402402DE9FC4706464FEA38
:201E0000D15900204FEA41211746B3074FF40074884614D000250EE0224631461048FEF71E
:201E200047FA42464B460E480094FFF7C7FE6D1C06F50076EDB2BD42EED3BDE8FC87012FF2
:201E400007D0CDE900470A464B46304600F00AF8F3E70A464B4630460094FFF7AFFEECE72A
:201E6000B89B00202DE9FF5F84B04FF00001DDE91256904604008DF808100F4606FB05FA0D
:201E80003CD0DFF828928B46C9F82C1000231A4619468748FFF772F8D9F81400800103D588
:201EA0000E2008B0BDE8F09F82480078022807D0681EB0F5006F21D2681E054208D01DE096
:201EC00007994FEA58204FF4007540EAC158F3E7284601F0CFFA01902A4601211020FFF76B
:201EE00035F81020FEF728FB0028DAD1012E39D906FB05F00090B0F1007F01D32620D0E7E2
:201F00006C4D287818B1012801D0022814D12889012102043720FFF719F83720FEF70CFB0C
:201F20000028BED1324601211720FFF70FF81720FEF702FB0028B4D1424601211920FFF76D
:201F400005F81920FEF7F8FA0028AAD1DDE9001200235748FFF712F8687840F21A3128B3EF
:201F6000012861D092E0400421D5AAEB070020280ED282074FEA900200D0521C002004E001
:201F800008CCC6F88030401C3F1D90420FD2F7E75FF0000054F82020C6F88020401C0828F1
:201FA000F8D304F1200407F1200700E04E46706B0842706BD7D0000704D5B06B40F00800D0
:201FC000B06361E0706B800705D5B06B40F00200B063022065E7706BC00605D5B06B40F0DD
:201FE0001000B06305205CE7706B800505D5B06B40F40070B063072053E7706BC0050FD565
:20200000287818B1012801D0022809D1002201210C20FEF79BFF0C20FEF78EFA0028D9D1DF
:2020200040F2FF50B06331E085F803B00122AA7085F804B0D9F83C004E460843C9F83C0074
:2020400020460099FEF7B8FFF06A40F00800F06219491A4A084601E0A0F1010013689B0450
:2020600002D40028F8D100E018B9FFF789F90BE0491E287908B9E87820B129B1E87828B178
:20208000E8780EE70029F3D104200AE740F2FF50C9F8380002A8FEF7B9FC00289AD19DF8F3
:2020A00008100729F6D00629F4D0FAE600800140FFFF0F00E8000020FFFF01000004024024
:2020C00010B501210846FEF7DDFE0D20FEF7A2FD012202210C48FEF725FB0C20FEF79AFDD3
:2020E0000948012202211438FEF71CFB074C01220221204600F02AFA20460122BDE8104060
:20210000114600F023BA0000300002400030014030B587B001210520FEF7CCFEA020ADF831
:20212000140003248DF8164018201F4D8DF8170005A92846FEF714FC4020ADF814004820A7
:202140008DF817008DF8164005A92846FEF708FC01210803FEF7AEFE0020ADF800004FF41D
:202160008271ADF80210ADF804000221ADF806100121ADF808104902ADF80A101021ADF86F
:202180000C10ADF80E000720084CADF810006946204600F0EEF90121204600F009F8FFF7E5
:2021A0008FFF07B030BD000000080140003001400029018802D041F0400101E021F040010A
:2021C0000180704770B5044600F098F90E4E4FF4805529463046FEF714FCD82000F05CF93C
:2021E000C4F3074000F058F9C4F3072000F054F9E0B200F051F929463046FEF704FCBDE83A
:20220000704000F063B90000000C01402DE9F041DFF850800D4606464FF480571446394635
:202220004046FEF7EEFB032000F036F9C5F3074000F032F9C5F3072000F02EF9E8B200F05E
:202240002BF904E0A52000F027F906F8010B2000A4F10104A4B2F5D139464046BDE8F041E6
:20226000FEF7D1BB000C01402DE9F04707460E4611F0FF00C0F10001CDB24FEA122402F010
:20228000FF094FF4807A13D0F0B24042C0B206EB00081CB3501B80B2040A00F0FF092A46A5
:2022A0003146384600F0A0F83D44464657462CE07CB155462000A4F10104E4B20CD02A4687
:2022C0003146384600F090F806F5807607F58077F0E73146384623E04A46FAE7A945F8D9AE
:2022E000A9EB0500C4B22A463146384600F07CF841467819224613E03A463146284600F03E
:2023000073F806F5807605F580752000A4F10104E4B2F1D15FEA090006D00246314628460B
:20232000BDE8F04700F060B8BDE8F08730B501218C0387B02046FEF7B1FD01214FF484706E
:20234000FEF7B8FD4FF42040ADF8140003208DF816001820224D8DF8170005A92846FEF765
:20236000FFFAADF8144048208DF8170005A92846FEF7F6FAA410ADF8144010208DF81700ED
:2023800005A92846FEF7ECFA21462846FEF73BFB0020ADF800004FF48271ADF80210ADF8EF
:2023A00004000221ADF806100121ADF808104902ADF80A100821ADF80C10ADF80E0007208E
:2023C000084CADF810006946204600F0D2F801212046FFF7EDFE00F0A5F807B030BD00008B
:2023E000000C0140003800402DE9F04114460D46064600F083F8DFF854804FF48057394629
:202400004046FEF7FEFA022000F046F8C5F3074000F042F8C5F3072000F03EF8E8B200F041
:202420003BF83811844204D9FF24307800F034F8761C2000A4F10104A4B2F6D13946404628
:20244000FEF7E1FABDE8F04100F040B8000C014070B5044600F052F80E4E4FF48055294615
:202460003046FEF7CEFA202000F016F8C4F3074000F012F8C4F3072000F00EF8E0B200F09D
:202480000BF829463046FEF7BEFABDE8704000F01DB80000000C014070B50B4C0546022156
:2024A000204600F05BF80028F9D02946204600F05EF80121204600F051F80028F9D020464F
:2024C00000F053F8C0B270BD0038004070B50A4D4FF4805421462846FEF793FA0520FFF7A5
:2024E000DBFFA520FFF7D8FFC007FAD121462846BDE87040FEF787BA000C014070B5084DB7
:202500004FF4805421462846FEF77BFA0620FFF7C3FF21462846BDE87040FEF774BA00003A
:20252000000C014070B5084D4FF4805421462846FEF767FAAB20FFF7AFFF21462846BDE8A9
:202540007040FEF760BA0000000C0140002A828801D00A4300E08A4382807047024600204F
:2025600012890A4200D001207047808970478181704730B502884C8802F441530A88CD889F
:2025800022438C882C4322430C8922434C8922438C892243CC8922431A430280828B22F484
:2025A00000628283098A018230BD70B5054600214FF4163440F23F1340F2DF12084602F0AC
:2025C000A3FD2C2001F0C8FC02F0D2FD2146284601F024FCBDE8704002F0DABD10B51446B6
:2025E00000F014F902F0C4FD0221204601F016FCBDE8104002F0CCBD2DE9FF5F80460C46A3
:202600001D468B46580700D0012000EBD5006908484300F0FF0A23484FF4F071203A0160B7
:20262000D0B20026029039E00C2D03D0102D01D0182D35D102984FF0000900EBC0011A48F2
:2026400000EB8100875D380601D5184802E00E9828B91748214602884046FFF7BFFF114969
:202660007806641C0968070EA4B2884518D2A4EB0B00A84209D10B4908F101001FFA80F88C
:2026800009685C4688450BD206E009F1010000F0FF09B9F1080FD6D3761CF6B25645C3D3CF
:2026A000BDE8FF9FD8000020CC590008E0000020E20000202DE9F84F044600F0FF091019E8
:2026C0000D46DDE90AB687B258191FFA80F84FF0000A12E0BC4203D305EB0B004C4685B213
:2026E00045450FD25B4629462046CDF800A0FEF703FA04EB5B0084B2761C3278A2F1200033
:202700005E28E7D9BDE8F88F10B5002306E000BF30F8024B21F813405B1C9BB29342F7D376
:2027200010BD00002DE9F84FA0F10064154689468246B4F5002F4FD2FEF786F8E70AC4F374
:202740004906C6F58064A54200D82C46DFF88C804FF4806B4FF0006000EBC7205A461F49D0
:202760000090FFF7D1FF00204FF6FF7106E0331838F813208A4203D1401C80B2A042F6D3C1
:20278000A04221D20098FEF70BF80020424606E039F810108319401C22F8131080B2A042AC
:2027A000F6D35A460D49009800F01AF8A5420FD0281B09EB4409A2447F1C002685B25C46F6
:2027C000A542C7D82C46C5E7224649465046EBE7BDE8F84FFEF716B8BDE8F88F780900207A
:2027E0002DE9F04116460F460546002408E000BF37F814102846FEF70DF8AD1C641CA4B271
:20280000B442F5D3BDE8F08170470000F8B5164F04460D464FF4006631463846FEF7F1F802
:202820002A2001F0B9FBADF80040ADF8024002F09FFC0221684601F001FC02F0A9FC2B20AF
:2028400001F0AAFBADF80050ADF8025002F090FC0221684601F0F2FB02F09AFC314638464C
:20286000FEF7D1F8F8BD00000014014022480021026842F4803202604FF4A063026801F1AF
:20288000010112F4003F01D19942F7D10168890330D51A490A6842F010020A600A6822F07B
:2028A00003020A600A6842F002020A604168416041684160416841F480614160416821F4E5
:2028C0007C114160416841F4E8114160016841F08071016001688901FCD5416821F00301E4
:2028E0004160416841F0020141604168C1F381010229FAD170470000001002400020024079
:202900000A4810B5007858B102F0A2FA0848007801280AD107480088BDE81040FEF7A6B8A6
:2029200000F0CCF900F03EF8F0E710BDB0000020B4000020E20000204FF0E0210428086995
:2029400003D020F004000861704740F00400FAE7704700000F4810B5016841F0010101608B
:2029600041680D4A1140416001680C4A11400160016821F480210160416821F4FE01416016
:202980004FF41F018160FFF771FF05494FF00060086010BD001002400000FFF8FFFFF6FE30
:2029A00008ED00E02DE9F04F8BB00026079608961422AB4902A80996FDF7BFFCA949AA4C47
:2029C00001F5007B0BF12000CBF818104FF48071CBF81C10E16801F051FC002873D12079D0
:2029E00020B90421A148FEF70EF82671FFF79EFC02F0DEFBDFF878924FF4806749F2884AEB
:202A00004FF018089B4901F1200001F00FFD9A49002808707ED19BF809005D46002879D0E2
:202A20002E28EFD0A869017801B108B99148093092A1A061FDF7FAFB10B9287AC006E1D56E
:202A400090A1A069FDF7F2FB10B10120607000E06670884844300670E168FDF7F9FB85483B
:202A60008AA14430FDF718FC8248A1694430FDF713FC804901224431854801F037FB0028EB
:202A8000C0D184480088FDF7F1FFB9F80000504507D0A0F5AE41613903D0A0F5EE419639CC
:202AA00012D1A0694546CDE900801823C8226421BE20FEF727F878A0CDE900501823C8228A
:202AC0008221B42011E0C8E0A0695A21CDE9008045461823C8220846FEF714F86EA0CDE969
:202AE00000501823C82278215A20FEF70BF8607801282CD06B4DE661E0695B4B05441C33D3
:202B00003A466949624801F0EBFBA08B294682B2654800E092E0FFF7A7FB607801285C48F8
:202B2000C0681DD002F068FE00905E484042284402F062FE009902F07DFD5C4902F070FEA8
:202B400002F03AFE80B2632810D963201EE0504804224FF4C0010C30FFF786FB544DCAE75D
:202B600002F04AFE009052484042E0E70A280DD20A21B0FBF1F201FB120030308DF80800E3
:202B800025208DF809008DF80A6010E00A23B0FBF3F203FB120002F130018DF80810303095
:202BA0008DF8090025208DF80A008DF80B60B9F80000504507D0A0F5AE41613903D0A0F520
:202BC000EE41963907D102A8CDE90080C8221823A021104606E002A8CDE900801823C82218
:202BE00096218C20FDF78EFFE069B84284D2B9F80000504507D0A0F5AE41613903D0A0F5B5
:202C0000EE41963907D12BA1CDE90081C8221823A021104606E027A1CDE900811823C82295
:202C200096218C20FDF76EFF4FF47A7000F08EFD174801F01BFA01202070E3E60D4807A944
:202C4000203001F01BFB30B9A06801F0EFFCD4E9021001F017FC012020700BB0BDE8F08FED
:202C6000B859000878110020B4000020000C0140E400002078130020200000202E62696E1B
:202C800000000000554E4947424B00002F00000020940020E20000205570646174696E6733
:202CA0002E2E2E0000D06200489600200000C8420010600031303025000000002DE9F04FD5
:202CC00085B000279449029701F5807803970497C8F81810914C4FF48071C8F81C1008F121
:202CE0002000216901F0CAFA00287DD1207920B904218B48FDF787FE2771FFF717FB02F08A
:202D0000B1FADFF820924FF0010A4FF0180B4FF48065854901F1200001F088FB89F80000D6
:202D2000002870D198F80900464600286BD02E28EFD0B16908782E28EBD038B131B1A16115
:202D40007AA1A069FDF772FA38B903E076480930A061F5E7307AC006DBD576A1A069FDF713
:202D600065FA10B184F802A00FE074A1A069FDF75DFA08B1022005E073A1A069FDF756FA9C
:202D800010B10320A07000E0A7706748443007702169FDF75DFA64486EA14430FDF77CFA40
:202DA0006148A1694430FDF777FA5F4901224431694801F09BF90028ABD168480088FDF741
:202DC00055FE67480088A0F51441883907D0A0F5AE41613903D0A0F5EE41963914D1182343
:202DE000C8225E46642100E092E0A069CDE900B0AA20FDF787FE5BA0CDE900601823C82286
:202E00008221B42011E074E0A0695A21CDE900B05E461823C8220846FDF774FE51A0CDE9E8
:202E200000601823C82278215A20FDF76BFEA078012826D0022837D0032848D046484FF421
:202E40000042FF21C06820623748A830FDF756FB354EA836314B2A461C3331463E4801F040
:202E60003FFA6071E06906F58066A842F2D22E4A216AA832A069FDF78FFF374801F0F6F8AA
:202E800047E7264B28491C332A46A831324801F027FA60712449D4E90602A831FDF70EFF21
:202EA000E069A842EDD2E8E71C4B1F491C332A46A831294801F014FA60711B49D4E9060280
:202EC000A831FDF73BFFE069A842EDD2D5E7134B15491C332A46A8311F4801F001FA6071C5
:202EE0001148E169A83000F019FCE069A842EED2C3E70D4802A9203001F0C0F930B9606909
:202F000001F094FBD4E9040101F0BCFA84F800A005B0BDE8F08F000078120020B400002055
:202F2000000C014020000020781300202E62696E000000005F6C6F676F0000005F74697432
:202F40006C656C6F676F00005F70726576696577000000002F00000020940020E200002089
:202F6000E40000205570646174696E672E2E2E00FEE7000010B504460A464078012304F172
:202F8000340100F026FF08B1032010BDB4F83202A0F52A41553901D0022010BD94F86A001A
:202FA000B4F86B1040EA01210848B0EB012F08D094F88610B4F8872041EA0221B0EB012F1D
:202FC00001D1002010BD012010BD0000004641542DE9FC5F4D49002001F06CF814214C4824
:202FE000FDF7DDF94A4814211430FDF7D8F9494D49F2884847F29679288845F2617740450A
:2030000001D0484505D144A14148FDF721F947A10CE0B84205D14AA13D48FDF719F94DA1F8
:2030200004E051A13A48FDF713F953A138481430FDF70EF903223649534801F057F8344C86
:20304000DFF848B1583C38B1DBF80010E160DBF804205846226154E004214D48FDF7D3FC36
:203060004C4949484FF0010A81F800A0C06820620020FDF7FBFC264E2888182528364045CE
:2030800003D0B84201D048450DD143A0CDE900501823C82264218C20FDF734FDC82218239E
:2030A000A02110460CE03CA0CDE9005050211823C8220846FDF726FD1823C8228C21084610
:2030C000CDE90056FDF71EFD01F080FD2E4800F0CDFF0F49012214312B4801F007F830B929
:2030E000294800F0C3FF0A48143001F09FFA08490748143101F0C6F984F802A0D4E9031208
:20310000584602B0BDE8F05FFDF7AAB91C01002074000020E4000020526F62696E5F6E6117
:203120006E6F33352E62696E00000000524F42494E5F4E414E4F33352E435552000000005E
:20314000526F62696E5F6E616E6F34332E62696E00000000524F42494E5F4E414E4F343330
:203160002E43555200000000526F62696E5F6E616E6F2E62696E0000524F42494E5F4E4163
:203180004E4F2E43555200005003002000700008000C0140B80000205446542055706461D2
:2031A00074696E670000000000E0401C02780AB18A42FAD1D0B27047F0B50022164B14469A
:2031C00002EB420653F826506DB10768BD420BD103EB860586686F68B74205D12D89C68880
:2031E000B54204D000E0641C521C022AE8D3022A01D079B904E05CB9022909D01220F0BD44
:2032000002EB420003EB80004089B0F5807F01D00020F0BD1020F0BDB89D00202DE9F04767
:2032200016460A4601680D78303D092D02D84B783A2B07D0002500271760022D05D30B2083
:20324000BDE8F087891C0160F5E7784850F825408CB11460207820B1607800F0C9FDC10793
:203260000BD02770E8B2B946607000F099FDC10708D00320E4E70C20E2E70EB1400704D48C
:203280000020DDE71EB1400701D50A20D8E700210D462046FFF76EFE01280CD104F5F970D1
:2032A0000179E1B3017AD0F8090041EA002529462046FFF75FFE032801D080BB01E0012003
:2032C000BEE7B4F83F00B0F5007F5AD1B4F84A0028B994F85800D4F8591040EA0120E06193
:2032E00094F844108446E170012901D0022948D1484394F84110A17089B14B1E194240D10C
:20330000B4F84520228113073BD1B4F847602EB994F85430D4F8556043EA062600E030E0BF
:20332000B4F842306BB31F1807EB1217BE4228D3F61BB6FBF1F121B3012640F6F67841453B
:2033400000D302264FF6F678414500D30326891C2F44E7622B44A161C4E90853032E12D050
:203360007AB11844A062022E18D001F0010001EB410100EB510000BF00F2FF10BCEB502F6A
:203380000ED20D205CE7002AFBD194F86000D4F8612040EA0220A0628800EDE74800EBE7EA
:2033A0004FF0FF30C4E903904F46032E31D16771B4F86400012342196261607804F134016B
:2033C00000F007FD28BBB4F83202A0F52A4155391FD194F83400D4F8351040EA012014493F
:2033E000884216D194F81802D4F8191240EA0120104988420DD194F82002D4F8211240EA5C
:203400000120E06094F81C02D4F81D1240EA0120206106492670091F0888401C0880E080F9
:2034200027632771204600F007F829E714010020525261417272416130B50021064A0C465C
:2034400001EB410352F82350854201D142F82340491C0229F4D330BDB89D00208269891EFE
:20346000921E8A4201D800207047C26A807801FB00207047002102E04008491CC9B20128D5
:20348000FAD1084670472DE9F0410F00064606D001F0E1F9022809D20120BDE8F081F46881
:2034A00014B1B069A04205D8012403E0B1698142F3D83C462546B0696D1CA84202D8022545
:2034C000022C0AD32946304601F0C5F938B1411CE3D00128E1D0A542EDD10020DDE76FF092
:2034E00070422946304601F061FD30B957B12A463946304601F05AFD20B101280BD001254D
:203500002846CAE7F5603069411CF9D0401E306101207071F4E74FF0FF35F1E72DE9F84F04
:20352000884682460D6800E06D1C28782F28FBD05C28F9D00024DAF81C702646A85D761C83
:20354000202818D32F2816D05C2814D0FF2C32D2C0B2012101F0C6F85FEA00092BD0B9F12A
:20356000800F04D2014667A0FFF71EFE18BB27F81490641CE2E7AA19C8F80020202801D2E9
:20358000042516E0002514E007EB440030F8020C20280DD02E280BD06CB1002027F81400C1
:2035A0000B222021DAF8180001F009FB002606E0641E002CE8D10620BDE8F88F761C37F838
:2035C00016002028FAD02E28F8D01EB145F0030500E0641E2CB107EB440030F8020C2E2898
:2035E000F7D1002080464FF0080B009037F81690761CB9F1000F24D0B9F1200F04D0B9F1D0
:203600002E0F04D1A64202D045F00305EEE70098584501D2A6421AD1BBF10B0F0FD0A64264
:2036200001D045F003050CD84FF0080000904FEA886026464FF00B0B4FEA1068D6E745F03C
:203640000305DAF818000178E52937D038E04846B9F1800F0CD3002101F044F890B12C4928
:2036600045F00205084410F8800C5FEA000904D0014628A0FFF798FD38B14FF05F0945F0A9
:20368000030512E045F00205F7E7A9F14100192802D848F0020808E0A9F16100192804D8DE
:2036A000413048F001081FFA80F9DAF81820009902F801900098401C009097E705210170FF
:2036C000BBF1080F03D14FEA88604FEA1068C8F38100032803D06FEA0801890701D145F04E
:2036E0000205A90709D408F00301012901D145F01005012801D145F00805DAF81800C57296
:20370000002059E7222A3A3C3E3F7C7F00000000286700082B2C3B3D5B5D000070B5084C78
:203720000D468AB2074B21681944FEF79DFD2068054928442060884201D30020206070BD06
:20374000F400002000580C008038010000E0401E0028FCD17047000010B56FF00400FFF730
:20376000EBF8094809490068B0FBF1F0C1B2084801EB41020170C2EBC1114FF6FF7202EA4B
:20378000C101418010BD00000800002000127A00DC0000200B49498848434FF0E021486190
:2037A00000228A61086940F0010008610869C30701D0C003FAD5086920F0010008618A617D
:2037C00070470000DC0000202DE9F84F0546002100F082FA002879D14FF0FF0BD946296995
:2037E000286801F0CBFB06000ED16C69207850B1E17AE52801F03F0103D00A0705D50F29A0
:2038000009D0FF204DE0042672E00F2903D0B9F1000F4BD04FE0E96981B3420606D594F8C4
:203820000DB020F04000EA8881462A84484536D1627B5A4533D100912078A04620F0400021
:20384000401E00EB80010027DFF8ACA001EBC006012400BF1AF8071001EB0800008874B1F4
:2038600000F05CFF0446FF2E19D2009830F81600761C00F053FFA04211D104E02FE0A0F5A5
:203880007F41FF390BD17F1C0D2FE3D398F80000400608D53CB1009830F8160018B1FF2069
:2038A000C0B281461DE0A9F10100F9E7204601F01BFE58451CD04FF6FF702884A8694FF0AE
:2038C000FF09C17AC9070CD10A2102E011E0491E06D314F8012B10F8013BD21AF7D000E0AB
:2038E00032B10021284600F009F806003FF477AF3046BDE8F88F0000A86700082DE9F04106
:203900000446C0880F46401C0604360C2CD0206950B331075BD1401C2061E168206829B1A4
:203920008278521E12EA161F04D050E00089B0421AD94CE000F08FFF0546012819D9681CE6
:2039400030D020688169A9423BD86FB1E168FFF79AFD05000BD0012D0BD0681C22D020681A
:2039600001F02AFEF0B906E00420BDE8F0810720FBE70220F9E720684FF400723430002198
:2039800001F01DF929462068FFF768FD216800274FF0010808630DE080F80480206801F009
:2039A0000BFE08B10120E0E72068016B491C7F1CFFB2016320688178B942EDD8016BC91BC3
:2039C0000163E56029462068FFF748FD2061E68006F00F013422206802EB411108446061F5
:2039E0000020C2E72DE9F05FFF248B460546274604264FF6FF784FF0000964E0286801F0FA
:203A0000BDFA060063D16869017869B1C27AE52902F03F0206D02E2904D0082A06D0B446D1
:203A2000DC4506D0FF2440E0042650E04FF0010CF6E70F2A01D0ACBB3EE04A0605D5477B4E
:203A400021F04001EA880C462A84A1422BD1417BB94228D10178DFF880A001F03F01491E0B
:203A600001EB810202EBC1010022D5F81CC001261AF8023003441B8836B1FF2913D22CF8F0
:203A800011301E46491C01E043450CD1521C0D2AEED30078400603D5FF2904D22CF8119017
:203AA000641E01E00CE0FF24E4B200212846FFF725FF060007D00AE001F016FDB84208D0B8
:203AC000A5F8208005E02969002997D10EB1C5F810903046BDE8F09FA86700082DE9FF5F50
:203AE00004460C22D4E906763946684601F05EF89DF80B00C00719D00020F8720125E06160
:203B00002B4632466946384600F064FE2046FFF75BFE18B96D1CADB2642DF1D3642D0BD00E
:203B200004280AD19DF80B00F872E6619DF80B00800711D5002005E0072004B0BDE8F09F0C
:203B4000401C80B236F810100029F9D119300D21B0FBF1F086B200E001260021204600F0DD
:203B6000BBF888B900272169206801F007FA58B960690078E52809D040B10027012120464E
:203B8000FFF7BCFE0028EED0054679E07F1C3046B742F3D1461E1FFA86FABAF1000F56D040
:203BA000E188A1EB0A0081B2204600F095F8050066D1A06901F098FC03902169206801F090
:203BC000DDF905005CD16169D4F81C90039848730F20C8720020087388760AF0FF0BC87601
:203BE000ABF1010000EB800202EBC00500234FF6FF7E244E4A1C01E0604503D039F81500AD
:203C00006D1CF446F75CC85516F80380070A08F8027000B960465B1C0D2BEDD3704502D008
:203C200039F8150008B94BF0400B81F800B021680120087100212046FFF760FE05001FD1DB
:203C4000AAF101001FFA80FABAF1000FB5D12169206801F093F9050012D120220021606952
:203C600000F0ADFFD4E905010B2200F09FFFA0696169C07A00F01800087321680120087177
:203C800028465AE7A86700082DE9F041018C0446C588A1F57F40FF3800D12946204600F0D1
:203CA0001BF8002816D1E52601272169206801F065F960B961690E7021680F71E188A94290
:203CC00008D200212046FFF719FE0028EDD0042800D10220BDE8F08170B50D46C1808168BA
:203CE000044601291ED0206882698A421AD921B90278032A04D1816A11B18078060117E037
:203D0000E1600189A9420DD9806A17E0206800F0A2FD0146401C07D0022903D32068806923
:203D2000884203D8022070BD012070BDA81B85B2B542EBD2E1602068FFF790FB00EB151039
:203D4000206105F00F013422206802EB411108446061002070BD000010B50D20FCF74EFF34
:203D6000002202210C48FCF7DDFC0C20FCF746FF0948002202211438FCF7D4FC074C002260
:203D800002212046FEF7E2FB20460022BDE810400121FEF7DBBB00003000024000300140BB
:203DA00010B530B1012801D0022802D00348007810BDFDF7E5FA002010BD00000C010020EA
:203DC00028B1012801D0022801D0042070470020704770B514460D4608B1042070BD1A4627
:203DE00021462846FDF7AEFD0028F7D0012070BD28B1012801D0022801D00120704700204C
:203E0000704770B514460D4630B91A4621462846FDF7F2FF002800D0042070BD2DE9F3477D
:203E2000DFF844900C464FF4006841464846FCF7E8FD2C2000F0B0F84FF48036771E0AE091
:203E4000B44201D3384600E0204685B22946684600F0DCF8641B002CF2D141464846FCF746
:203E6000D2FDBDE8FC8700000014014070B505460C460F48FCF77BFC0D4A0E4811461060FF
:203E800080145560506200201062802050611020C2E902048001D0618010074C9061204677
:203EA000FCF748FC2046BDE870400121FCF71EBC489A00200C3001403000024070B50546C0
:203EC0000C460E48FCF753FC0C4A0D4880211060801455605062516100201062D06110219B
:203EE0009061C2E90214074C11462046FCF722FC2046BDE870400121FCF7F8BB489A00206A
:203F00000C3001403000024070B505460C460F48FCF72DFC0D4A0E481146106080145560C0
:203F2000506220201062002050611020C2E902048001D0618010074C90612046FCF7FAFB97
:203F40002046BDE870400121FCF7D0BB489A00200C30014030000240F1B50D4C4FF400656E
:203F600029462046FCF74DFD21152046FCF749FD01216846FFF7A2FF064E80213046FEF793
:203F8000EDFA0128F9D029462046FCF73CFDF8BD001401400030014031B54FF48061074873
:203FA000FCF72FFD01216846FFF788FF044C80212046FEF7D3FA0128F9D038BD0014014040
:203FC000003001402DE9F0410E4C0D4606464FF4006739462046FCF714FD21152046FCF70E
:203FE00012FD29463046FFF769FF074D80212846FEF7B4FA0128F9D039462046BDE8F041BC
:20400000FCF701BD001401400030014070B50C4605464FF480610748FCF7F5FC214628463B
:20402000FFF772FF044C80212046FEF797FA0128F9D070BD001401400030014070B50C46E0
:2040400005464FF480610748FCF7DDFC21462846FFF70CFF044C80212046FEF77FFA012812
:20406000F9D070BD001401400030014070B5044600F090FA002818D1616A491E022915D246
:204080000B4D01EB410305EB83025189B1F5807F06D009B1491E89B25181002211B103E0D9
:2040A0000021F9E745F82320226070BD022070BDB89D00202DE9F04104460E46022802D328
:2040C0000B20BDE8F081DFF82080002758F824501DB12846FFF7B0F92F7006B1377048F825
:2040E00024600020EDE70000140100202DE9F7478DB007000ED04FF0000802F01F0626F029
:20410000010269460EA8C7F80080FFF787F8040004D0ADE0092010B0BDE8F08709A80690D2
:204120005548079068460E9900F020FB059D04000BD11DB1700803D0012102E0062404E03E
:2041400000216846FFF738F8044616F01C0F5DD04FF0010ADCB1042C14D1474900201839D5
:2041600002E0401C022805D200EB400251F82220002AF6D1022804D06846FFF7AFFC0446C0
:2041800000E01224059D46F0080644B170E0E87A10F0110F44D1700701D5082468E030074F
:2041A00044D500F0B4FBA873010AE973010C2974000E687485F80B8085F81C8085F81D80F6
:2041C00085F81E8085F81F802946009800F058FC81460021284601F07FF90099B9F1000F4C
:2041E00081F804A020D000984946D0F830A000F05AFF04003CD10099A9F10100C8605146A6
:20420000009800F0BBFE04000CD031E084BBE87AC10601D504242BE0B10703D5C00701D0D3
:20422000072425E0300701D546F020060098006BC7E90705700801D0012100E0002168460C
:2042400000F0D2FB7862A8B1BE712946009800F017FC3861287FD5F81D1040EA0120C7E900
:204260000280C7F81880009838600098C088B880204650E70224FBE7D09D002073B584B08F
:20428000040008D00146002205A8FEF7C7FF2568002618B11EE0092006B070BDC4F818D047
:2042A0000E48E0612046059900F060FA70B9616931B1C87AC0060FD5284600F0E1FBA0601E
:2042C000E888A08000212046FFF706FD042803D00028E1D02660DFE70520FBE7D09D002016
:2042E0002DE9F05F0F460021984615460446196001F08CF9002803D1A079010602D502205C
:20430000BDE8F09FC00708D0D4E90210401A04F12809854200D9054683E00720F0E7A06827
:20432000C10566D122689178491E01EA502111F0FF0609D118B31046616900F08CFA0228BF
:204340001FD3411C4DD0606161692068FFF786F8B8B100EB060B5FEA552A29D0206806EBCB
:204360000A0281788A4201D9A1EB060A0AF0FF0340785A463946FFF72CFD90BB06E020694A
:20438000DDE7A07940F08000A071B8E7A07940060BD5A169A1EB0B00504506D207EB402041
:2043A0004FF40072494600F001FC4FEA4A262EE0A2695A451BD0A07940060AD52068012396
:2043C00049464078FFF71DFD58B9A07920F04000A071206801235A4640784946FFF7F9FC7D
:2043E00028B1A07940F08000A071012088E7C4F818B02089C0F30800C0F50076AE4200D99E
:204400002E46011928313246384600F0CFFBA06837443044A060D8F800008119AD1BC8F81C
:204420000010002D7FF47BAF002069E7FEB50E46044601F0EBF8002819D1CEB1C4F818D0D8
:204440000F48E06100212046FFF7CCFA0025042813D000280BD13146204600F05AFA002107
:204460002046FFF74BFA042801D100202561FEBD00212046FFF730FCFEBD2561EBE7000080
:20448000D09D002033B59DB00C46012201A91DA8FEF7C4FE00285AD101980B901AA80790DF
:2044A0003B48089001A81D9900F060F900284ED1022101A8FEF780FE002848D10698E8B339
:2044C00000F10B01152214A800F070FB242201A90BA800F06BFB21460BA800F047F970B32B
:2044E000042834D10BA8FFF7F9FA00282FD1109C13220DF1520104F10D0000F057FB9DF8BC
:204500005000012540F02000E072019805710D990398884232D0E07AC0062FD52146019843
:2045200000F0AEFA01460198FEF798FF010012D0019800F023FD019A543201E006E008E01B
:20454000002804D150782E2807D017E004201FB030BD0820FBE70220F9E70198007803284A
:2045600006D101990D98896A884201D1002100E00D99104600F0B0FF0198057101A8FFF74C
:2045800083FB0028E3D1019800F0BBFFDFE70000D09D002070B5044601F038F800280ED194
:2045A000A1798A060BD548060ED52068012304F128014078A269FFF724FC08B1012070BD96
:2045C000A07920F04000A071E169206800F0D6FC0028F4D1256AE87A40F02000E872207BAA
:2045E0002877A089000A6877E068000CA877E068000EE8772846216900F06EFF00F087F91D
:20460000A875010AE975010C2976000E68760020A874E874A07920F02000A07121680120E0
:2046200008712068BDE8704000F06BBF71B595B00122694615A8FEF7F1FD04004CD112A852
:204640000690274807906846159900F08FF8040042D102216846FEF7AFFD04003CD1059EAE
:2046600056B1F07AC00700D007243146009800F007FA054614B12FE00624F6E7F07AC006B1
:204680001AD5022D01D2022426E02422694609A800F08CFA022109A80B95FFF71DFB04005B
:2046A0001AD1002109A8FFF79DF9040002D0042C02D011E007240FE06846FFF7E5FA040047
:2046C0000AD12DB12946009800F0EDFC040003D1009800F016FF044616B0204670BD000029
:2046E000D09D0020802804D30B4A49B1FF2801D90020704702EB4000A0F580700088704796
:2047000032F81130834203D0491C89B28029F7D38031C8B270470000E26700080021064BDE
:2047200000E0491C33F81120002A04D08242F8D1024830F811007047E2680008C26A00088D
:2047400070B502FB03F40B4402445B1E521E9BB292B2049D00F0D8FC00F00AFD2146284600
:20476000FFF75CFBBDE8704000F012BD73B50446019801782F2901D05C2901D1401C0190E7
:204780000025A56001980078202805D200212046FFF7A2FA65617CBD01A92046FEF7BEFEE6
:2047A0000028F8D12046FFF70FF8A169C97A28B10428F0D14907EED405207CBD4907FCD402
:2047C0006169C87AC006F7D5206800F059F9A060E2E700007CB516461C4605460B2200F051
:2047E000E5F9052C09D9600836F8021B00EBC430084484B230880028F5D107214FEA0D039D
:2048000004F00F003030392801D9C01DC0B25854491E2409F4D17E205854002200E0521CEC
:204820008A4202D2A85C2028F9D1082902D2585C491C00E02020A854521C082AF5D37CBDE7
:2048400000B597B0FCF79CFD6846FCF723FCFEF7BFFB17B000BD2DE9F0410D4604460229CE
:2048600002D3A069A84202D80120BDE8F0812078012804D0022826D0032837D12FE0606A9E
:2048800005EB550600EB5621204600F077FB68BBC6F308002044761C90F83470606A00EBE8
:2048A0005621204600F06AFB00BBC6F308002044E90790F8340047EA002001D00009D4E754
:2048C000C0F30B00D1E7606A00EB1521204600F055FB58B9E8B204EB4000808EC5E7606A73
:2048E00000EBD511204600F049FB10B14FF0FF30BBE740F2FF1000EA8500204490F834109C
:20490000D0F8350041EA002020F07040ADE7002070472DE9F0410D4601F109040169C1B3AD
:20492000416900230E7BCA5C202A0FD0052A00D1E522370705D5A2F14107192F01D8203265
:20494000D2B25B1C04F8012B082BECD30A7A202A13D02E2204F8012B0823CA5C202A0CD0A2
:20496000F70605D5A2F14107192F01D82032D2B25B1C04F8012B0B2BEFD3CA7A2A720A7F8E
:20498000D1F81D3042EA03222A600A8BAA80C98AE9804FF0000884F80080AE69002E1ED035
:2049A000E96900291BD001690024B1B1018CA1F57F42FF3A11D0C7690BE00021FFF792FEE1
:2049C00018B1E969491EA14201D8002405E03055641C37F8020B0028EFD106F80480BDE840
:2049E000F081FBF7D2BE0000F0B50346234AD3F80040002000EB400552F82560A64209D17D
:204A000002EB85059E686F68B74203D12D89DE88B54202D0401C0228ECD3022818D1002018
:204A200002E0401C022805D200EB400552F82550002DF6D1022813D000EB400542F8254078
:204A400002EB85049E686660DB88238100236381002900EB400102EB8101498902D019B1D4
:204A60000020F0BD491C01E04FF4807100EB400302EB8302401C5181F0BD0000B89D0020FF
:204A80000246488B1278032A02D1898A40EA0140704700001CB54FF4A060FCF7F9F8FCF751
:204AA0003FF8FEF759FEFDF741FC344C2046401EFDD1042232493348FDF7A8FB314802788A
:204AC000002531494E2A08D14278412A05D182784E2A02D1C2784F2A0BD00278FF2A0AD09B
:204AE0004278FF2A07D08278FF2A04D0C078FF2801D00D7001E001200870087888BB2148B2
:204B000001220421401EFDF781FB00F001FC0020FBF7ACFF641EFDD11C494FF4FC600880F9
:204B20001B4805801B48401EFDD14FF400511A48FBF769FF194818210088A0F51442883ADF
:204B400007D0A0F5AE42613A03D0A0F5EE42963A08D113A0CDE900101823C8228C21BE20F4
:204B600007E008E00EA0CDE900101823C82264216E20FBF7C7FFFFF763FEFEE7FFFF1F00A9
:204B8000E0FF7F0001000020B0000020E0000020E2000020FFFF0F0000140140E40000205E
:204BA000426F6F74696E672E2E2E000004E000BF11F8013B00F8013B521EF9D27047C9B210
:204BC00001E000F8011B521EFBD270472DE9FC5F96489549964D816100214162417045F24E
:204BE000617A4FF0180B4FF480694C464A46FF219048FBF783FC8D4B8E4934332246A1F5AD
:204C00000A70FFF76DFB894C2071E16A4FF4707081421CD2E17801294FF000010A461BD039
:204C2000844E04F1380380460020775C13F800C0401C87EA0C077754491C2028F5D3E06A84
:204C4000401CE062404502D2521C202AECD3D4E9030108431AD01EE0744E764B38360020E1
:204C60005F1816F8008097F840C1491C8CEA080C401C87F840C12028F2D3E06A521C401CB3
:204C8000E062162AEBD30020E070E0E769480168E160406820616749A1624FF40072A069A8
:204CA000FDF740FDA06949F2884800F58060A061676A7F1C67622089E0802E88464505D085
:204CC000564503D0A6F5EE40963801D15A4800E05A482063206A00F08FFD00904FF4C83085
:204CE000784300F089FD009900F0A4FC216B00F097FD00F061FD82B247462281BE4205D0C3
:204D0000564503D0A6F5EE40963808D1B2F5F07F10D24FF4FC609B238221009007E0B2F59F
:204D2000A07F07D24FF4FC6087236E2100900020FBF79EFE206A00F05FFD0646606A8002F7
:204D400000F05AFD3E4900F06BFD314600F072FC00F032FD80B22081632802D963202081DC
:204D60000FE00A280DD20A21B0FBF1F201FB12012E4830318030017025214170002181706A
:204D800010E082B20A23B2FBF3F6284806F130018030017003FB16213031417025218170F5
:204DA0000021C1702888B84205D0504503D0A0F5EE41963908D11D48C8228030CDE900B0E9
:204DC0001823A021104607E018488C218030CDE900B01823C8220846FBF794FE606B484528
:204DE000BFF403AF2888A0F51441883905D0504503D0A0F5EE41963907D112A1CDE900B131
:204E0000C8221823A021104606E00EA1CDE900B18C211823C8220846FBF774FEBDE8FC5FD6
:204E20000A48FEF793BC0000007000081C000020E4000020780500209A999940CDCC4C4056
:204E40000000C8423130302500000000FFFF0F0070B5002535A13A48FBF7FAF90322384958
:204E60003848FFF743F9384C4FF40046C0B971113648FBF7C6FD344B32461C333449314809
:204E8000FFF72EFAA08B05F5405182B23048FDF7EBF9E0690544B042EDD22A48FFF7E6F831
:204EA00000252CA12648FBF7D3F9032224492548FFF71CF9002837D1234B32461C332449F8
:204EC0002048FFF70DFAA08B05F5C00182B22048FDF7CAF9E0690544B042EDD21948FFF79A
:204EE000C5F82148007801281ED120484E2101704122427081704F21C1704FF4FE00FDF7D8
:204F000061F904221A491948FDF7AEF9194C20212046FBF778FD1848FEF718FC2046BDE8CB
:204F200070402021FBF76DBD70BD0000526F62696E5F6E616E6F5F7069632E62696E000030
:204F40007400002020940020B4000020000C014020140020526F62696E5F6E616E6F5F66AA
:204F60006F6E742E62696E00B000002001000020E0FF7F0000100140FFFF2F0070B504463D
:204F8000006B0D46A8420ED0204600F015FB38B9607801232A4604F13401FEF71AFF08B1D7
:204FA000012070BD2563002070BD00002DE9F04717460D460446022902D3A069A84202D8BA
:204FC0000220BDE8F087217807F0FF084FF00109012908D0022938D0032947D05FF00200EA
:204FE00084F80490EDE7606A05EB550600EB56212046FFF7C3FF0028F2D1C6F30800204428
:205000003430E90703D0017868F31F1100E03946017084F80490606A761C00EB5621204661
:20502000FFF7ACFF0028DBD1C6F3080121443431EA0702D0C7F3071205E00A78C7F3032392
:2050400002F0F0021A430A70CAE7606A00EB15212046FFF793FF0028C2D1E9B204EB410184
:205060003A0A81F8348081F83520B9E7606A00EBD5112046FFF782FF0028B1D140F2FF11ED
:2050800001EA85010A1934324FF07043D2F8011003EA0121394311700B0A53700B0C93704B
:2050A000090ED1709CE72DE9F0410E460746022918D3B869B04215D900254FF001081DE0AC
:2050C00031463846FFF7C7FB04001AD0012C09D0601C09D0002231463846FFF767FF050062
:2050E0000FD103E002250CE001250AE03869411C03D0401C386187F805802646B869B04281
:20510000DED82846BDE8F0812DE9F843174F0D4680464FF400669946144631463846FBF7BC
:2051200070FC2A20FEF738FFADF80080ADF8024000F01EF802216846FEF780FF00F028F826
:205140002B20FEF729FFADF80050ADF8029000F00FF802216846FEF771FF00F019F8314616
:205160003846FBF750FCBDE8F8830000001401400648018821F040010180018841F4006135
:205180000180018841F0400101807047003001400648018821F040010180018821F4006141
:2051A0000180018841F0400101807047003001407CB522480088FBF759FC21481824008833
:2051C000A0F51441883907D0A0F5AE41613903D0A0F5EE41963910D11AA0CDE900401823FD
:2051E000C8226421B420FBF78DFC19A0CDE900401823C8228221AA200FE012A0CDE9004019
:205200001823C8225A216420FBF77CFC10A0CDE900401823C82278215A20FBF773FC00249D
:205220004FF4C00505EB0440FCF7CCFF641C1F2CF8D30B490120C8707CBD0000E2000020F6
:20524000E400002053504920466C617368000000464F4E542045726173696E672E2E2E00A6
:20526000B40000201CB520480088FBF7FFFB1F4818240088A0F51441883907D0A0F5AE417C
:20528000613903D0A0F5EE41963910D118A0CDE900401823C8226421B420FBF733FC17A029
:2052A000CDE900401823C8228221AA200FE010A0CDE900401823C8225A216420FBF722FC9D
:2052C0000EA0CDE900401823C82278216420FBF719FC00242004FCF775FF641C602CF9D35A
:2052E0000A490120C8701CBDE2000020E400002053504920466C617368000000504943202D
:2053000045726173696E672E2E2E0000B400002010B5FCF7FDFEFBF7B3FBFBF7D9FB6C4998
:2053200047F2967008807820FEF734FA1120FEF713FE7820FBF729FAF020FEF70DFEC32014
:20534000FBF7E8FBF020FEF707FE9620FBF7E2FB3620FEF701FE5F480078EE2801D0282051
:2053600000E0E820FBF7D6FB2820FBF7D3FB3A20FEF7F2FD5520FBF7CDFBB420FEF7ECFD5B
:205380000120FBF7C7FBB720FEF7E6FDC620FBF7C1FBE820FEF7E0FD4020FBF7BBFB8A2069
:2053A000FBF7B8FB0020FBF7B5FB0020FBF7B2FB2920FBF7AFFB1920FBF7ACFBA520FBF759
:2053C000A9FB3320FBF7A6FBC120FEF7C5FD0620FBF7A0FBC220FEF7BFFDA720FBF79AFB17
:2053E000C520FEF7B9FD1820FBF794FBE020FEF7B3FDF020FBF78EFB0920FBF78BFB0B2068
:20540000FBF788FB0620FBF785FB0420FBF782FB1520FBF77FFB2F20FBF77CFB5420FBF72D
:2054200079FB4220FBF776FB3C20FBF773FB1720FBF770FB1420FBF76DFB1820FBF76AFBC6
:205440001B20FBF767FBE120FEF786FDF020FBF761FB0920FBF75EFB0B20FBF75BFB0620D9
:20546000FBF758FB0420FBF755FB0320FBF752FB2D20FBF74FFB4320FBF74CFB4220FBF7A6
:2054800049FB3B20FBF746FB1620FBF743FB1420FBF740FB1720FBF73DFB1B20FBF73AFBB0
:2054A000F020FEF759FD3C20FBF734FBF020FEF753FD6920FBF72EFB7820FEF76BF92920E1
:2054C000FEF74AFDBDE810400020FDF76EB80000E40000200000002081760A0AC2760A0CE4
:2054E0000275090E41757047014600200B22430803EBC01011F8013B521E1844C0B2F6D1CA
:2055000070472DE9F041044600F056F8050050D12078032846D16079E8B3002604F1340042
:205520004FF40072314607462663FFF748FB552084F83202AA2084F83302522084F834006E
:2055400084F83500612084F83600412184F83710722284F8182284F8192284F81A1284F81D
:205560001B02206984F81C02010A84F81D12010C84F81E12000E84F81F02E06884F82002EB
:20558000010A84F82112010C84F82212000E84F82302607800E005E0012339466269FEF7E5
:2055A00030FC6671002260781146FEF709FC00B101252846BDE8F0812DE9F0410446007938
:2055C00010B3256B04F13401607801232A460F46FEF717FC10B10120BDE8F08100202071DC
:2055E000606AA84210D8E1690844A8420CD9E67808E0E0690123054460782A463946FEF7F2
:2056000000FC761E022EF4D20020E5E710B538B1016829B10A781AB1CA888088824201D0EB
:20562000092010BD4878FEF7E3FBC007F9D0032010BD00004FF47F0C1CEAD0121EBF1CEAC8
:20564000D11392EA0C0F93EA0C0F00F0858090EA010F48BF42F4807240F4000C41F4000014
:205660002CF07F4120F07F4000B58142A2EB03020FF2081CACEB504EC0F100009EF800E0F4
:205680004FEA4E0E00FB0EFC38BF49004FEA2C1C02F5FA020CFB0EF34FEACE1E4FEA112C19
:2056A0004FEAC1210EEB635E42EB22420EFB0CFC4FEA1C5300FB03114FEA112C4FEA0131DB
:2056C0000EFB0CFC4FEADC4C00FB0C11C14228BF09184CEB03335DF804EB10EB410143EB19
:2056E000C250B2F57C0F38BF704729D512F0F00F1CBF00F1C04000F0004070470081828380
:205700008485868788898B8C8D8E8F919293959697999A9C9D9FA0A2A3A5A7A8AAACAEB091
:20572000B2B3B5B7B9BCBEC0C2C5C7C9CCCED1D4D7D9DCDFE2E6E9ECF0F3F7FAFE00000075
:205740004FEA400C0CF1807CBCF17E4F28BF7047B0F1C04000F02BB990EA010F0CEAD113DA
:2057600048BF42F48072624538BF634507D213F47F0F16D080EA010000F00040704710B549
:2057800000F0CFF8097EFC3E00F005B880EA010000F00040704780EA010000F0004000F007
:2057A00006B912F47F0F04BF0248704780EA010000F0FDB80000C07FC10DD1F19E0206DB72
:2057C0004FEA002343F0004323FA02F07047004207D54FEA4001B1F1FE4F02D24FF0000097
:2057E000704710B500F09DF849922480002070476FEA200070470000B0FA80F310FA03F206
:20580000C3F19D030AD0D90501EB1220530638BF704700F1010008BF20F0010070470000D6
:205820004FF47F0C1CEAD0121EBF1CEAD11392EA0C0F93EA0C0F00F0478090EA010F48BF74
:2058400042F480724FF0004C4CEA00204CEA012102EB0302A0FB0113A2F50002002918BFAD
:2058600043F001035B0028BF4FEA330342EB22425FEA132C4CEBC2502EBFBCEB436FB2F5F1
:205880007C0F70474FEA036CBCF1004F08BF20F00100B2F57C0F38BF70470BD582F0FF0217
:2058A00012F5803FC8BF704700F1C040D8BF00F00040704700F5000C5FEA4C0C48BF704715
:2058C000B0F1C04000F073B890EA010F0CEAD11348BF42F48072624538BF634504D280EAF3
:2058E000010000F00040704710B500F01AF800BF8900013E00F007B800F009B85FEA410C7C
:205900005FEA1C6C08D080EA010000F050B85FEA400C5FEA1C6CF6D14FF00040A0F58000BA
:2059200070470EF1020E2EF0030E5EF8044B244204D44FEA4102B2F17F4F11D84FEA40033D
:20594000B3F17F4F0CD80ED14FEAD07CB2F17F4F0CEB4C0C0CF1020C08BF4CEBD17C04E093
:205960004FF0080C01E04FEAD17C0CEB4C0324FA03F404F00704B4F1040C06D20EEB840CFD
:20598000BDE810404CF0010C6047DFE80CF0070802024FF00040A0F5800010BD084642005B
:2059A00018BFD2F1807288BF00F0004010BDFF2141EAD050C00570473025000000000000DB
:2059C0000000000000000000000000000000000000000000000000000000000000000000C7
:2059E000000000000000000000000000000000000000000000000000000000000000000F98
:205A000080380FFE380F8038000000000000000000000000000000000000010000060000BB
:205A20000C00003800003100000600000C000038000030000000000000000000618000672F
:205A4000F807F9800061800061800061800061800067F807F980006180000000000000008A
:205A6000000001C0E003E0F00630080418081FFFFE040E080787F00381E000000000000038
:205A800001F000060C00040408060C7001F9C0000E00003BE000EC18070808040C18000348
:205AA000E00000000001E00007F003F818041C0804170807E1D003C0E00023B0003C08005E
:205AC00020080000100000000000000100003100003200001C00000000000000000000000E
:205AE000000000000000000000000000000000000000000000000000000000007F0001FF27
:205B0000C00780F00C00181000042000020000000000002000021000040C00180780F00122
:205B2000FFC0007F0000000000000000000000000000000000000000420000660000660019
:205B4000003C0000180003FFC0001800003C000066000066000042000000000008000008BD
:205B60000000080000080000080001FFC00008000008000008000008000008000000000025
:205B8000000100003100003200001C00000000000000000000000000000000000000000085
:205BA000000000000800000800000800000800000800000800000800000800000800000895
:205BC00000000000000000000000000038000038000038000000000000000000000000001D
:205BE000000000000000000000000000000600001C000070000180000E0000380000C0008C
:205C00000700001C0000300000000000000000007F8001FFE0038070060018040008040031
:205C20000806001803807001FFE0007F80000000000000000000010008010008010008034E
:205C4000FFF807FFF800000800000800000800000000000000000001C03802C05804009888
:205C6000040118040218040418061C1803F81801E0F800000000000000000001C0E003C03F
:205C8000F004000804080804080806180803F41801E7F00001E000000000000000000000F2
:205CA0000300000D0000110000610000810803010807FFF80FFFF8000108000108000000B7
:205CC0000000000000E007FCD0060808061008061008061008061838060FF00607C0000079
:205CE00000000000000000003F8001FFE003843002081804100804100804100807181003A6
:205D00000FF00007C000000000000000000003C0000700000600000600F80607F8061800CC
:205D200006E00007000006000000000000000001E1E003F7F0063410041808041808040C22
:205D400008040C0806161803F3F001C1E000000000000000F80003FC3003063804020804ED
:205D600002080402080404100308F001FFC0007F00000000000000000000000000000000B9
:205D800000000000703800703800703800000000000000000000000000000000000000000B
:205DA0000000000000000000301A00301C000000000000000000000000000000000000004D
:205DC0000000000800001400002200004100008080010040020020040010080008000000BD
:205DE000000000002100002100002100002100002100002100002100002100002100002159
:205E0000000000000000000000000800080400100200200100400080800041000022000098
:205E2000140000080000000000000003C00004C000040000080038080F38080838081000CC
:205E40000C300007E00003C000000000000000003F8000FFE0038070020F1006708804C0E8
:205E600088048308047F8802C09003012000FE400000080000180001F8003E0801C2000723
:205E8000020007E20000FE00001FC80001F800003800000804000807FFF807FFF8040808DD
:205EA00004080804080804080806180803F41801E7F00001E0000000000000003F8001FFF9
:205EC000E00380700200180400080400080400080400100600200780C0000000040008071D
:205EE000FFF807FFF804000804000804000804001802001003807001FFE0007F8000000089
:205F000004000807FFF807FFF8040808040808040808040808043E080400080600180100B4
:205F20006000000004000807FFF807FFF8040808040800040800040800043E000600000673
:205F40000000018000000000000000003F8001FFE0038070060018040008040208040208E8
:205F60000203F00783F000020000020004000807FFF807FFF804080800080000080000087A
:205F80000000080004080807FFF807FFF804000800000000000004000804000804000807B2
:205FA000FFF807FFF8040008040008040008000000000000000000000006000007000001BA
:205FC00004000104000104000307FFFE07FFFC04000004000004000004000807FFF807FF8E
:205FE000F8040C08001800003E0004C7800503C80600F804003804001800000804000807AF
:20600000FFF807FFF8040008000008000008000008000008000008000018000060000000DF
:2060200004000807FFF807800807FC00007FC00003F80007C000780007800807FFF807FFB8
:20604000F804000804000807FFF807000803C00000E000003800001E000007000001C0045E
:2060600000F007FFF8040000000000007F8001FFE003807006001804000804000806001808
:2060800003003001FFE0007F8000000004000807FFF807FFF80404080404000404000404BE
:2060A00000040400060C0003F80001F000000000000000007F8001FFE00380700600880476
:2060C00000880400C806003C03003E01FFE6007F8400000004000807FFF807FFF8040808E4
:2060E000040800040C00040F00040BC00610F003F03801E00800000800000001E0F803F0B4
:2061000030063010041808041808040C08040C080206180207F00781E00000000180000689
:20612000000004000004000004000807FFF807FFF8040008040000040000060000018000B4
:2061400004000007FFE007FFF004001800000800000800000800000800000804001007FF01
:20616000E004000004000006000007E00007FE00041FE00001F80000380001E0043E0007E7
:20618000C00006000004000004000007E00007FFC0041FF80007C007F80007FF80043FF8E2
:2061A0000007C004F80007000004000000000004000806001807C07805F1C8003E00001F8D
:2061C000800463E80780F806001804000800000004000006000007800007E008047C08003F
:2061E0001FF80007F800180804E0080700000600000400000000000100080600380400F829
:206200000403E8040F08047C0805F00807C00807001804006000000000000000000000009D
:20622000000000000000003FFFFE2000022000022000022000022000020000000000000078
:20624000000008000007000000C0000038000006000001C000003000000E00000100000031
:206260000000000000002000022000022000022000022000023FFFFE000000000000000038
:2062800000000000000000000000000000080000100000300000200000300000100000084E
:2062A0000000000000000000000001000001000001000001000001000001000001000001D6
:2062C00000000100000100000100000100000000000000000020000020000010000010005A
:2062E000000000000000000000000000000000000000000000F00019F8001B180022080040
:206300002608002408002410003FF8001FF800000800001800000004000007FFF80FFFF081
:20632000001818001008002008002008003018001FF0000FC00000000000000007C0001FB9
:20634000F0001830002008002008002008003C08001C1000006000000000000000000000BD
:2063600007C0001FF000381800200800200800200804101007FFF80FFFF00000100000004F
:206380000000000000000007C0001FF0001230002218002208002208003208001E10000EE1
:2063A0002000000000000000200000200800200801FFF803FFF806200804200804200807CE
:2063C000200003000000000000000000000E000E6E001FF30031B10020B10020B1003191B8
:2063E000001F13002E1E00200E00300000000004000807FFF80FFFF8001008002000002059
:2064000000002008003FF8001FF80000080000000000000000000020080020080020080680
:206420003FF8063FF8000008000008000008000000000000000000000000000003000003CA
:20644000002001002001002003063FFE063FFC00000000000000000000000004000807FF41
:20646000F80FFFF8000188000300002FC00038F800203800200800000800000000000000EB
:20648000000004000804000804000807FFF80FFFF8000008000008000008000000000000BC
:2064A000002008003FF8003FF8001008002000003FF8003FF8001008002000003FF8003FF2
:2064C000F8000008000000002008003FF8003FF8001008001000002000002008003FF8007F
:2064E0001FF80000080000000000000007C0000FF0001830003008002008002008003008AF
:20650000001830000FF00007C0000000000000002001003FFF003FFF001011002009002066
:2065200008002008003038001FF0000FC00000000000000007C0001FF00038180020080097
:206540002008002009001011001FFF003FFF000001000000002008002008002008003FF8BD
:20656000003FF8000808001008002008002000003000003000000000000000000000000C08
:2065800078001E180033080023080021080021880021980030F000386000000000000000A4
:2065A000200000200000200000FFF003FFF8002008002008002008000030000000000000EA
:2065C000000000002000003FF0007FF8000018000008000008002010003FF8007FF00000F7
:2065E00010000000000000002000003000003C00003F800023F000007800007000238000A2
:206600003C00003000002000002000003C00003FE00023F80000E0002700003E00003FE0F4
:206620000021F80001E0003E00002000000000002008002008003838003E680027800003F2
:20664000C8002CF8003838002018002008000000000000002000003003003C01003F83002C
:2066600023EC000070002380003C00002000002000000000000000000000003808002038E4
:206680000020F80023E8002F88003E080038080020180000700000000000000000000000F2
:2066A000000000000000000008000014001FF7FC3000062000020000000000000000000054
:2066C0000000000000000000000000000000FFFFFF000000000000000000000000000000BD
:2066E0000000000000002000023000061FF7FC001400000800000000000000000000000014
:20670000000000000000001800006000004000004000002000001000000800000400000441
:2067200000000C0000100000809A90418E418F804545454949498E8F9092924F994F555518
:2067400059999A9B9C9D9E9F41494F55A5A5A6A7A8A9AAABAC21AEAFB0B1B2B3B4B5B6B76B
:20676000B8B9BABBBCBDBEBFC0C1C2C3C4C5C6C7C8C9CACBCCCDCECFD0D1D2D3D4D5D6D729
:20678000D8D9DADBDCDDDEDFE0E1E2E3E4E5E6E7E8E9EAEBECEDEEEFF0F1F2F3F4F5F6F709
:2067A000F8F9FAFBFCFDFEFF01030507090E10121416181C1E000004000200018000400071
:2067C000200010000800040002000000008000400020001000080040002000100008000407
:2067E0000002C700FC00E900E200E400E000E500E700EA00EB00E800EF00EE00EC00C4002F
:20680000C500C900E600C600F400F600F200FB00F900FF00D600DC00A200A300A500A7200C
:206820009201E100ED00F300FA00F100D100AA00BA00BF001023AC00BD00BC00A100AB0081
:20684000BB009125922593250225242561256225562555256325512557255D255C255B25E9
:206860001025142534252C251C2500253C255E255F255A25542569256625602550256C2596
:20688000672568256425652559255825522553256B256A2518250C25882584258C25902599
:2068A0008025B103DF009303C003A303C303B500C403A6039803A903B4031E22C603B503F7
:2068C00029226122B1006522642220232123F7004822B0001922B7001A227F20B200A02550
:2068E000A0006100620063006400650066006700680069006A006B006C006D006E006F00E0
:2069000070007100720073007400750076007700780079007A00A100A200A300A500AC0039
